:100000000C9450000C9462000C9462000C946200FA
:100010000C9462000C9462000C9462000C949E009C
:100020000C9462000C9462000C9462000C946200C8
:100030000C9462000C9462000C9462000C946200B8
:100040000C9462000C9462000C9462000C946200A8
:100050000C9462000C9462000C9462000C94620098
:100060000C9462000C9462000C9462000C94620088
:100070000C9462000C9462000C9462000C94620078
:100080000C9462000C9462000C9462000C94620068
:100090000C9462000C9462000C9462000C94620058
:1000A00011241FBECFEFCDBFDFE3DEBF28E2A0E00B
:1000B000B8E201C01D92A030B207E1F70E949000A3
:1000C0000C94D1000C9400008FEF80936004E0E06A
:1000D000FAE082E390E086A397A381E08287089507
:1000E00088ED90E084BF9093610090E884BF909386
:1000F000600080E28093A004E0E0F4E0808180680A
:1001000080830895E0EEF5E0848183608483E0E0FD
:10011000FAE083E7818383E0828381E0808308952E
:1001200078940E9470000E9482008AE090E08093A0
:10013000280A9093290A0E946400FFCF1F920F9211
:100140000FB60F9211248F939F938091280A90915C
:10015000290A0A9719F484E190E014C08091280AD2
:100160009091290A449719F48EE190E00BC0809198
:10017000280A9091290A4E9719F485E090E002C070
:100180008AE090E08093280A9093290A1092200A2E
:100190001092210A9F918F910F900FBE0F901F9088
:0601A0001895F894FFCF52
:00000001FF
