S013000050574D2D74657374696E672E73726563F2
S11300000C9450000C946D000C946D000C946D00D5
S11300100C946D000C946D000C946D000C94D7003E
S11300200C949C000C946D000C946D000C946D0069
S11300300C946D000C946D000C946D000C946D0088
S11300400C946D000C946D000C946D000C946D0078
S11300500C946D000C946D000C946D000C946D0068
S11300600C946D000C946D000C946D000C946D0058
S11300700C946D000C946D000C946D000C946D0048
S11300800C946D000C946D000C946D000C946D0038
S11300900C946D000C946D000C946D000C946D0028
S11300A011241FBECFEFCDBFDFE3DEBF18E2A0E017
S11300B0B8E2E8E2F2E002C005900D92AA30B1077E
S11300C0D9F728E2AAE0B8E201C01D92AC30B20729
S11300D0E1F70E946F000C9412010C94000088ED6B
S11300E090E084BF9093610090E884BF9093600097
S11300F0809100048068809300048091E40583600B
S11301008093E40581E08093000A91E19093010AD1
S11301108093030A8FEF8093600480910828909164
S113012009288093260A8091260A8093270A82E070
S113013080930A0A7894FFCF1F920F920FB60F9202
S113014011242F938F939F93EF93FF93E0910A28A9
S1130150F0910B28EE0FFF1FE050F84D8081809343
S1130160290A23E42093210A80910A2890910B28DC
S1130170019680930A2890930B28039759F41092C0
S11301800A2810920B2881E080930A0A1092290A07
S11301902093200A82E080930B0AFF91EF919F91B4
S11301A08F912F910F900FBE0F901F9018951F9253
S11301B00F920FB60F9211242F938F939F93EF9367
S11301C0FF93E0910A28F0910B28EE0FFF1FE050F7
S11301D0F84D80818093280A23E42093200A80919B
S11301E00A2890910B28019680930A2890930B2853
S11301F0039759F410920A2810920B2882E08093F6
S11302000A0A1092280A2093210A81E080930B0A9B
S1130210FF91EF919F918F912F910F900FBE0F90AF
S10B02201F901895F894FFCF1C
S10D02280500050005000500430071
S9030000FC
