S013000050574D2D74657374696E672E73726563F2
S11300000C9450000C946D000C946D000C946D00D5
S11300100C946D000C946D000C946D000C949F0076
S11300200C946D000C946D000C946D000C946D0098
S11300300C946D000C946D000C946D000C946D0088
S11300400C946D000C946D000C946D000C946D0078
S11300500C946D000C946D000C946D000C946D0068
S11300600C946D000C946D000C946D000C946D0058
S11300700C946D000C946D000C946D000C946D0048
S11300800C946D000C946D000C946D000C946D0038
S11300900C946D000C946D000C946D000C946D0028
S11300A011241FBECFEFCDBFDFE3DEBF18E2A0E017
S11300B0B8E2EEEAF1E002C005900D92AC30B1076F
S11300C0D9F728E2ACE0B8E201C01D92AE30B20725
S11300D0E1F70E946F000C94D5000C940000789412
S11300E088ED90E084BF9093610090E884BF909382
S11300F06000809100048068809300048091E4058E
S113010083608093E40583E78093010A83E080930E
S1130110020A81E08093000A23E430E02093280A55
S11301203093290A9FEF909360042093260A30931A
S1130130270A80930A0A80E28093A004FFCF1F92CB
S11301400F920FB60F9211242F933F938F939F9387
S1130150EF93FF9380910C2890910D28FC01EE0FF2
S1130160FF1FE050F84D208131812093280A3093FD
S1130170290A1092200A1092210A019686309105CC
S11301807CF010920C2810920D28FF91EF919F9112
S11301908F913F912F910F900FBE0F901F90189544
S11101A080930C2890930D28F0CFF894FFCF95
S10F01AE000000000000210043002100BC
S9030000FC
