S013000050574D2D74657374696E672E73726563F2
S11300000C9450000C945A000C945A000C945A000E
S11300100C945A000C945A000C945A000C945A00F4
S11300200C945A000C945A000C945A000C945A00E4
S11300300C945A000C945A000C945A000C945A00D4
S11300400C945A000C945A000C945A000C945A00C4
S11300500C945A000C945A000C945A000C945A00B4
S11300600C945A000C945A000C945A000C945A00A4
S11300700C945A000C945A000C945A000C945A0094
S11300800C945A000C945A000C945A000C945A0084
S11300900C945A000C945A000C945A000C945A0074
S11300A011241FBECFEFCDBFDFE3DEBF0E948F0060
S11300B00C9496000C9400008FEF80936004E0E0B1
S11300C0FAE089E190E080A791A782E390E086A31B
S11300D097A385E090E082A793A7089588ED90E028
S11300E084BF9093610090E884BF90936000E0E047
S11300F0F4E08081806880830895E0EEF5E08481F7
S113010083608483E0E0FAE083E7818383E0828391
S113011081E0808382E390E086AB97AB08950E94F0
S11301206E000E947D000E945C00FFCFF894FFCF18
S9030000FC
