S013000050574D2D74657374696E672E73726563F2
S11300000C9450000C945A000C945A000C945A000E
S11300100C945A000C945A000C945A000C949600B8
S11300200C945A000C945A000C945A000C945A00E4
S11300300C945A000C945A000C945A000C945A00D4
S11300400C945A000C945A000C945A000C945A00C4
S11300500C945A000C945A000C945A000C945A00B4
S11300600C945A000C945A000C945A000C945A00A4
S11300700C945A000C945A000C945A000C945A0094
S11300800C945A000C945A000C945A000C945A0084
S11300900C945A000C945A000C945A000C945A0074
S11300A011241FBECFEFCDBFDFE3DEBF0E9485006A
S11300B00C94B7000C9400008FEF80936004E0E090
S11300C0FAE082E390E086A397A381E08287089513
S11300D088ED90E084BF9093610090E884BF909392
S11300E06000E0E0F4E08081806880830895E0EEC1
S11300F0F5E0848183608483E0E0FAE083E7818330
S113010083E0828381E08083089578940E9468006C
S11301100E9477000E945C0080E28093A0048AE041
S113012090E08093280A9093290AFFCF1F920F92A0
S11301300FB60F9211248F939F938091280A909168
S1130140290A0A9739F489E190E08093280A909368
S1130150290A06C08AE090E08093280A9093290A2D
S11301609F918F910F900FBE0F901F901895F89448
S1050170FFCFBB
S9030000FC
