:100000000C9450000C946D000C946D000C946D00D9
:100010000C946D000C946D000C946D000C94960083
:100020000C946D000C946D000C946D000C946D009C
:100030000C946D000C946D000C946D000C946D008C
:100040000C946D000C946D000C946D000C946D007C
:100050000C946D000C946D000C946D000C946D006C
:100060000C946D000C946D000C946D000C946D005C
:100070000C946D000C946D000C946D000C946D004C
:100080000C946D000C946D000C946D000C946D003C
:100090000C946D000C946D000C946D000C946D002C
:1000A00011241FBECFEFCDBFDFE3DEBF18E2A0E01B
:1000B000B8E2E0EBF1E002C005900D92A831B10783
:1000C000D9F728E2A8E1B8E201C01D92AA31B2072F
:1000D000E1F70E946F000C94D6000C94000088EDAC
:1000E00090E084BF9093610090E884BF909360009B
:1000F000809100048068809300048091E40583600F
:100100008093E40581E08093000A91E19093010AD5
:100110008093030A9FEF9093600495E29093260AE0
:100120009093270A80930A0A7894FFCF1F920F9228
:100130000FB60F9211242F933F934F938F939F935A
:10014000EF93FF9380911828909119289C01220F1A
:10015000331FF901E45FF74D40814093280AF9010C
:10016000E050F84D20812093290A25E22093200AAF
:100170002093210A0196863091059CF01092182850
:100180001092192881E180930B0AFF91EF919F91C2
:100190008F914F913F912F910F900FBE0F901F9015
:1001A00018958093182890931928ECCFF894FFCFD6
:1001B00000000000000010001F00100010001F00D1
:0801C000100000000000000027
:00000001FF
