:100000000C9450000C9462000C9462000C946200FA
:100010000C9462000C9462000C9462000C94B70083
:100020000C9462000C9462000C9462000C946200C8
:100030000C9462000C9462000C9462000C946200B8
:100040000C9462000C9462000C9462000C946200A8
:100050000C9462000C9462000C9462000C94620098
:100060000C9462000C9462000C9462000C94620088
:100070000C9462000C9462000C9462000C94620078
:100080000C9462000C9462000C9462000C94620068
:100090000C9462000C9462000C9462000C94620058
:1000A00011241FBECFEFCDBFDFE3DEBF28E2A0E00B
:1000B000B8E201C01D92A230B207E1F70E946400CD
:1000C0000C94F0000C940000789488ED90E084BFCC
:1000D0009093610090E884BF909360008091000449
:1000E0008068809300048091E40583608093E40538
:1000F00083E78093010A83E08093020A81E0809382
:10010000000A21E230E02093280A3093290A9FEF69
:100110009093600423E430E02093260A3093270A6A
:1001200080930A0A80E28093A00421E08091002855
:10013000909101280397B1F08091002890910128B7
:100140000697A4F3F8941092002810920128809149
:10015000050A1092050A7894809100289091012850
:10016000039751F7F8942093050A7894DFCF1F92F4
:100170000F920FB60F9211248F939F9381E180937A
:100180000B0A8091280A9091290A81329105E9F0A1
:100190008334910551F483E290E08093280A909390
:1001A000290A1092200A1092210A80910028909129
:1001B0000128019680930028909301289F918F91A8
:1001C0000F900FBE0F901F90189583E490E08093DE
:1001D000280A9093290A1092200A1092210AE5CF4A
:0401E000F894FFCFC1
:00000001FF
