S013000050574D2D74657374696E672E73726563F2
S11300000C9450000C945A000C945A000C945A000E
S11300100C945A000C945A000C945A000C945A00F4
S11300200C945A000C945A000C945A000C945A00E4
S11300300C945A000C945A000C945A000C945A00D4
S11300400C945A000C945A000C945A000C945A00C4
S11300500C945A000C945A000C945A000C945A00B4
S11300600C945A000C945A000C945A000C945A00A4
S11300700C945A000C945A000C945A000C945A0094
S11300800C945A000C945A000C945A000C945A0084
S11300900C945A000C945A000C945A000C945A0074
S11300A011241FBECFEFCDBFDFE3DEBF0E9480006F
S11300B00C9497000C94000088ED90E084BF90931A
S11300C0610090E884BF90936000E0E0F4E08081F8
S11300D0806880830895E0EEF5E084818360848302
S11300E0E0E0FAE081E0808383E08183828382E33D
S11300F090E086A397A389E190E080A791A7089553
S11301000E945C008FEF809360040E946B0080E289
S11301108093A004E0EAF4E087832FEF34E39CE0CB
S1130120215030409040E1F700C00000F5CFF89432
S1050130FFCFFB
S9030000FC
