S013000050574D2D74657374696E672E73726563F2
S11300000C9450000C946D000C946D000C946D00D5
S11300100C946D000C946D000C946D000C946D00A8
S11300200C9497000C946D000C946D000C946D006E
S11300300C946D000C946D000C946D000C946D0088
S11300400C946D000C946D000C946D000C946D0078
S11300500C946D000C946D000C946D000C946D0068
S11300600C946D000C946D000C946D000C946D0058
S11300700C946D000C946D000C946D000C946D0048
S11300800C946D000C946D000C946D000C946D0038
S11300900C946D000C946D000C946D000C946D0028
S11300A011241FBECFEFCDBFDFE3DEBF18E2A0E017
S11300B0B8E2ECEAF1E002C005900D92A231B1077A
S11300C0D9F728E2A2E1B8E201C01D92A431B20737
S11300D0E1F70E946F000C94D4000C94000088EDAA
S11300E090E084BF9093610090E884BF9093600097
S11300F0809100048068809300048091E40583600B
S11301008093E40581E08093000A91E19093010AD1
S11301108093030A8FEF809360048FE78093260A0D
S11301208093270A82E080930A0A7894FFCF1F9273
S11301300F920FB60F9211242F938F939F93EF93E7
S1130140FF9383E080930B0A8091122890911328E7
S1130150FC01EE0FFF1FE050F84D20812093280A88
S1130160FC01EE0FFF1FEA5FF74D20812093290A5F
S11301702FE72093200A2093210A019686309105C7
S113018074F01092122810921328FF91EF919F910E
S11301908F912F910F900FBE0F901F901895809301
S10F01A0122890931328F1CFF894FFCF9D
S11301AC42005A00420000000000000042005A00C5
S10501BC4200FB
S9030000FC
