S013000050574D2D74657374696E672E73726563F2
S11300000C9450000C945A000C945A000C945A000E
S11300100C945A000C945A000C945A000C945A00F4
S11300200C945A000C945A000C945A000C945A00E4
S11300300C945A000C945A000C945A000C945A00D4
S11300400C945A000C945A000C945A000C945A00C4
S11300500C945A000C945A000C945A000C945A00B4
S11300600C945A000C945A000C945A000C945A00A4
S11300700C945A000C945A000C945A000C945A0094
S11300800C945A000C945A000C945A000C945A0084
S11300900C945A000C945A000C945A000C945A0074
S11300A011241FBECFEFCDBFDFE3DEBF0E9462008D
S11300B00C9468000C94000090E088ED84BF909349
S11300C0610008950E945C0087E080936004FFCF84
S10700D0F894FFCFCE
S9030000FC
