:100000000C9450000C945A000C945A000C945A0012
:100010000C945A000C945A000C945A000C945A00F8
:100020000C945A000C945A000C945A000C945A00E8
:100030000C945A000C945A000C945A000C945A00D8
:100040000C945A000C945A000C945A000C945A00C8
:100050000C945A000C945A000C945A000C945A00B8
:100060000C945A000C945A000C945A000C945A00A8
:100070000C945A000C945A000C945A000C945A0098
:100080000C945A000C945A000C945A000C945A0088
:100090000C945A000C945A000C945A000C945A0078
:1000A00011241FBECFEFCDBFDFE3DEBF0E946C0087
:1000B0000C9483000C94000090E088ED84BF909332
:1000C0006100089583E08093E405E0E0FAE081E0D8
:1000D000808382E3818308950E945C0087E080939F
:1000E00060040E94620080E28093A004E0EAF4E0F1
:1000F00087832FEF34E39CE0215030409040E1F7BC
:0A01000000C00000F5CFF894FFCF17
:00000001FF
